:030000000204D91E
:0C04D900787FE4F6D8FD75813A0205201A
:100646000821F7FBFDFEEFDFBF7F0B2BC0F9A4B03F
:07065600999282F88090FFE9
:10068A007E03AD061EED600A7F28AD071FED60F2FE
:02069A0080F8E6
:01069C00223B
:10062400E4FC74212CF8E6F59074372CF8E6242BBE
:10063400F8E6F580BC010353807F12068A0CBC04E3
:01064400E1D4
:010645002292
:10044800E4F9EF70027F02BF01027F03D2A400002B
:10045800C2A20000D2A30000C2A30000D2A3EF13DF
:1004680092A40000C2A30000D2A3EFC3131392A466
:100478000000C2A3D2A40000E4FAFBFDA2A4E43366
:100488004203D2A30000C2A30000EB25E0FBEA333D
:10049800FABD0706A2A4E43342030DBD08DEE4FD5D
:1004A800E4A2A433D2A30000C2A30000C4333333B0
:1004B80054804201EDC394075004E9C313F90DBDFC
:1004C80008DED2A2C2A3D2A4EBFAE9FBAE02AF03C4
:0104D8002201
:10065E00D2A100D2A00000000000C2A10000000044
:06066E0000C2A000002202
:10069D00C2A100D2A00000000000D2A10000000005
:0206AD00002229
:10056500E4FEEFA806088002C333D8FC30E704D2C6
:10057500A18002C2A100D2A00000000000C2A00E0E
:10058500BE08DF0000D2A10000D2A000000030A10B
:0B05950004C2008002D200C2A00000DF
:0105A0002238
:10060000E4FFD2A1FE00C2A00000000000D2A000C2
:1006100000EF25E0FF30A1010F00000EBE08E6C28A
:03062000A0000037
:0106230022B4
:1005D400AE07AC0312065E12056530001CAF0512AF
:1005E4000565300011AF0412056530000612069D42
:0C05F4007FFF227F03227F02227F012272
:0405A100AE07AC03F2
:1005A500E4FB12065E120565300021AF04120565F5
:1005B50030001612065EAF051205653000081206FA
:0E05C50000AB0702069D7F03227F02227F010A
:0105D3002205
:10067400758920759850758DFD858D8BE4F587D22D
:06068400AFD2ACD28E22C1
:0806AF008F993099FDC29922D8
:10032300E4F508F509C201F50DF50E120674E4FFB4
:100333001204488F36740EC395367E0050047F0135
:0F03430080027F00C3EF94F3EE6480948050DF5C
:10035200751300853614AC13AD14EC1202067BD370
:100362007A9B79DE783E1200FB7BCD7ACC791478C9
:100372004112000A8F128E118D108C0FE4FFFE7D48
:10038200207C41AB12AA11A910A80F1200FB120285
:100392003F8E0B8F0CE50C650E7004E50B650D604E
:1003A20008850B0D850C0ED201AE0BAF0C7C037DC4
:1003B200E81202C08F3AAE0BAF0C7C037DE812024A
:1003C200C0AA04AB057D647C00AF03AE021202C07A
:1003D2008F397D647C00AF03AE021202C0AA04AB67
:1003E200057D0A7C00AF03AE021202C08F387D0A7F
:1003F2007C00AF03AE021202C08D37120624D3E591
:100402000C9464E50B9400500302033120010302B3
:1004120003310509E50970020508AE08FF7C007D7D
:10042200FF1202C0AB077D017FA01205D4AE08AF58
:10043200097C007DFF1202C0AB057D027FA0120580
:03044200D4C20120
:030445000203317E
:100003000202ABE86480F8E933E83360110460F07E
:10001300ED33EC337009E8FCE9FDEAFEEBFF220463
:1000230060DED3EB9FEA9EE99DE8C2E78CF0C2F75E
:1000330095F0400CE8CCF8E9CDF9EACEFAEBCFFB2A
:1000430012027685D0F05804700320D5B3E804700B
:10005300075002B2D50202B592D5EC0460F7E4CCA6
:10006300C0E0C398F8603B94186008400DD0E0FBF3
:1000730002028DE4FBFAC9FC8028E830E406E4C9F7
:10008300FBE4CAFCE830E305E4C9CACBFCE8540747
:100093006010F8C3E913F9EA13FAEB13FBEC13FC52
:1000A300D8F130F52FC3E49CFCEF9BFFEE9AFEEDF5
:1000B30099FDD0E0FBEF4E4D4C701222DB030202A0
:1000C300B2EC2CFCEF33FFEE33FEED33FDED30E706
:1000D300EB02028DEF2BFFEE3AFEED39FDD0E0FB94
:1000E30050130BBB00030202B5ED13FDEE13FEEF3D
:0800F30013FFEC13FC02028D67
:1000FB00EC4D6011E8497017ED33EC3304600DE4FF
:10010B00FCFFFEFD22E933E8330470F80202AB1268
:10011B00027658046009E4CC248150062850090269
:10012B0002B52840030202B2C0E0EB4A7044B9802A
:10013B0006D0E0FB0202A1EF4E701CBD8008EBFF66
:10014B00EAFEE9FD80EBE98DF0A4FEE5F00201E4A7
:10015B00E9CDF9EAFEEBFFEF89F0A4FCE5F0CE89DF
:10016B00F0A42EFFE435F0CD89F0A42DFEE435F09C
:10017B008067EF4E7005BD80D780C3EF8BF0A4ACCA
:10018B00F0EE8BF0A42CFCE435F0F8EF8AF0A42C05
:10019B00E5F038FCE433CB8DF0A42CFCE5F03BF818
:1001AB00EE8AF0A42CFCE5F038F8E433CF89F0A408
:1001BB002CFCE5F038CF3400CE89F0A42FFFE5F00E
:1001CB003EFEE433C98DF0A42EFEE5F039CD8AF066
:1001DB00A42FFFE5F03EFEE43DFD33D0E0FB5007DE
:1001EB000BBB000F0202B5EC2CFCEF33FFEE33FE22
:0601FB00ED33FD02028D50
:1002010075F020800E75F010800575F0087D007E78
:10021100007F003392D530D503120315EC33401023
:10022100EF33FFEE33FEED33FDEC33FCD5F0ED2281
:0E023100E5F0247EA2D513CC92E7CDCEFF22BD
:10023F00EDD2E7CD33EC3392D524814006E4FFFEB7
:10024F00FDFC22FCE4CFCECDCC24E0501174FF8016
:10025F00EDC3CC13CCCD13CDCE13CECF13CF0470B3
:07026F00F030D5DE0203159B
:10027600E9D2E7C933E833F892D5EDD2E7CD33ECCE
:0702860033FC5002B2D52247
:10028D00EC30E7100FBF000C0EBE00080DBD0004D2
:10029D000BEB6014A2D5EB13FCED92E7FD2274FF7E
:1002AD00FCFDFEFF22E480F8A2D574FF13FC7D80D7
:0302BD00E480EFEB
:1004E500020323E493A3F8E493A34003F68001F207
:1004F50008DFF48029E493A3F85407240CC8C33318
:10050500C4540F4420C8834004F456800146F6DFE6
:10051500E4800B0102040810204080900646E47E2A
:10052500019360BCA3FF543F30E509541FFEE493DB
:10053500A360010ECF54C025E060A840B8E493A3A2
:10054500FAE493A3F8E493A3C8C582C8CAC583CACD
:10055500F0A3C8C582C8CAC583CADFE9DEE780BE85
:01065D00009C
:1002C000BC000BBE0029EF8DF084FFADF022E4CC22
:1002D000F875F008EF2FFFEE33FEEC33FCEE9DECEB
:1002E000984005FCEE9DFE0FD5F0E9E4CEFD22ED31
:1002F000F8F5F0EE8420D21CFEADF075F008EF2F7B
:10030000FFED33FD4007985006D5F0F222C398FD6B
:050310000FD5F0EA2208
:0E031500C3E49FFFE49EFEE49DFDE49CFC22F9
:00000001FF
