:0300000002059165
:0C059100787FE4F6D8FD75811A0203782B
:100526002E2A003130302E30302A00252A00487518
:0D0536006D69646974792A002552482A0015
:0D04B6007F057E001204C3D2A27F057E00E8
:1004C300D3EF9400EE940040147D6E7C00ED1D701C
:0D04D300011CED4C70F7EF1F70E61E80E37A
:0104E00022F9
:10054300C2A08F807F017E001204C3D2A27F017EEE
:07055300001204C3C2A22242
:060459008B178A188919B7
:10045F00E4F51AAB17AA18A919851A827583001229
:10046F00018BFF642A6012D2A08F801204B6C2A241
:09047F00051AE51AC3944040DAA5
:010488002251
:10055A00C2A27F381205437F0C1205437F0612059B
:06056A00437F010205437E
:100508008E0A8F0BD3E50B9400E50A9400400EC2C7
:0E051800A4D2A4E50B150B70EB150A80E722A8
:0D058400D2A4C2A5C2A4D2A4D2A5C2A422B2
:100489007E80D2A5C2A4750A00750B08EF5E6004D0
:10049900D2A58002C2A5D2A4C2A4EEC313FEE50B65
:0C04A900150B7002150AE50B450A70E007
:0104B5002224
:1002E600E4F508F509F50AF50BD2A4C2A4050BE559
:1002F6000B7002050A6404450A70EE750A00750B58
:1003060004D2A47F0130A513E50B14FEEFA806085E
:100316008002C333D8FCFF2508F508C2A4E50B15F7
:100326000B7002150AE50B450A70D6C2A5D2A4C207
:10033600A4D2A5750A00750B08D2A47F0130A513B7
:10034600E50B14FEEFA806088002C333D8FCFF2590
:1003560009F509C2A4E50B150B7002150AE50B4554
:100366000A70D68508908509B0C2A5D2A4C2A4D2C7
:01037600A5E1
:010377002263
:0703C700AF16EF3395E0FED5
:0403CE008F828E8309
:1003D200E4751A01F519F518F517D3E5829400E5CD
:1003E20083648094804023AF1AAE19AD18AC17E431
:1003F2007B0AFAF9F81201B88F1A8E198D188C1728
:10040200E582158270D4158380D0AF1AAE19AD186B
:02041200AC1725
:0104140022C5
:10000300E508FE7C00E42509FFEC3ECF2423CF3432
:10001300FFFEE4FD7B9E7ADD7904F81201B87BA034
:100023007A86790178001204158F158E148D138C3E
:1000330012E47F887E13FDFCAB15AA14A913A81242
:10004300D31202D5401B74109515FF74279514FE27
:10005300E49513FDE49512FCE47B6C7A02F9F880D5
:100063000FE47F6C7E02FDFCAB15AA14A913A81242
:100073001201B8E47B887A13F9F8120243E5152FCD
:10008300F515E5143EF514E5133DF513E5123CF5BE
:1000930012751604E516B401097BFF7A0579261259
:1000A3000459D2A01203C7AB07AA06A905A804AF37
:1000B30015AE14AD13AC12120243EF2430F580E5F4
:1000C30080B430047F0180027F00E516B404047E0F
:1000D3000180027E00EE5F6003758020E580B4310D
:1000E300047F0180027F00E516B404047E018002D0
:1000F3007E00EE5F600C7BFF7A05792912045902BA
:100103000182E580B430047F0180027F00E516B4EC
:1001130003047E0180027E00EE5F6003758020127F
:1001230004B6C2A21203C7AB07AA06A905A804AF67
:1001330015AE14AD13AC12120243EE3395E0FDFC81
:10014300C004C005C006C0071203C7D003D002D045
:1001530001D0001201B8AA06A905A804C3E5159F9A
:10016300F515E5149AF514E51399F513E51298F5C9
:10017300121516C3E5166480948040030200977B32
:08018300FF7A057931020459ED
:10057000759850758921E4F587758DFD758BFDD2D1
:0405800099D28E225C
:1003780012055A1205707F831205437BFF7A0579AF
:10038800341204597FC21205437BFF7A05793E1265
:1003980004597F0A7E001205081205847F0512049D
:1003A80089D2A420A5FDC2A4D2A520A5FD1202E6EB
:0F03B8007FC71205431200037F021204E180D3B6
:10018B00BB010CE58229F582E5833AF583E0225029
:10019B0006E92582F8E622BBFE06E92582F8E22273
:0D01AB00E58229F582E5833AF583E493228D
:1001B800E88FF0A4CC8BF0A42CFCE98EF0A42CFCE6
:1001C8008AF0EDA42CFCEA8EF0A4CDA8F08BF0A464
:1001D8002DCC3825F0FDE98FF0A42CCD35F0FCEBC3
:1001E8008EF0A4FEA9F0EB8FF0A4CFC5F02ECD3988
:0F01F800FEE43CFCEAA42DCE35F0FDE43CFC22F5
:1002070075F008758200EF2FFFEE33FECD33CDCCAE
:1002170033CCC58233C5829BED9AEC99E582984031
:100227000CF582EE9BFEED9AFDEC99FC0FD5F0D60E
:10023700E4CEFBE4CDFAE4CCF9A88222B800C1B938
:100247000059BA002DEC8BF084CFCECDFCE5F0CB76
:10025700F97818EF2FFFEE33FEED33FDEC33FCEBAF
:1002670033FB10D703994004EB99FB0FD8E5E4F96A
:10027700FA227818EF2FFFEE33FEED33FDEC33FC57
:10028700C933C910D7059BE99A4007EC9BFCE99A4B
:10029700F90FD8E0E4C9FAE4CCFB2275F010EF2F90
:1002A700FFEE33FEED33FDCC33CCC833C810D70790
:1002B7009BEC9AE899400AED9BFDEC9AFCE899F8CB
:0E02C7000FD5F0DAE4CDFBE4CCFAE4C8F9225E
:10041500C2D5E830E70FB2D5E4C39BFBE49AFAE412
:1004250099F9E498F8EC30E717B2D512044B1202AB
:1004350043E4C39BFBE49AFAE499F9E498F8800352
:1004450012024330D50DE4C39FFFE49EFEE49DFDFB
:04045500E49CFC2205
:1002D500EB9FF5F0EA9E42F0E99D42F0E89C45F07F
:0102E50022F6
:1004E100EFB40A07740D1204EC740A309811A8993C
:1004F100B8130CC2983098FDA899C298B811F6307B
:0705010099FDC299F5992252
:00000001FF
