:03000000020201F8
:0C020100787FE4F6D8FD758120020248E9
:1002FF00FEFDFBF7EFDFBF7F3F065B4F666D7D07B0
:04030F007F6F0040BC
:0A000E0008130000000000000A0AB9
:10013B00AF08E4FCFDFEFBFA7901F812001EA804DF
:10014B00A905AA06AB07AF8CEFFEE4FCFD2BFBEA7F
:10015B003EFAED39F9EC38F8AF8AE4FEEB2FFFEEFF
:10016B003AFEED39FDEC388F1E8E1D8D1CF51BE410
:10017B00F51F7409251FF8E4F6051FE51FB408F2F7
:10018B00E4F51FE47B0AFAF9F8AF1EAE1DAD1CAC0B
:10019B001B1200A9EC4D4E4F6037E47B0AFAF9F8BD
:1001AB00AF1EAE1DAD1CAC1B1200A9AF037409250D
:1001BB001FF8A607AF1EAE1DAD1CAC1BE47B0AFAE5
:1001CB00F9F81200A98F1E8E1D8D1C8C1B051F802C
:1001DB00B27409251FF8A61EE4F51F7409251FF834
:1001EB00E6FF7413251FF8A607051FE51FB406EBE2
:0501FB00E4F511F50818
:0102000022DB
:1002D600758915E4F58CF58A758DEC758B78D28E5B
:1002E600D28CD2A9D2ABD2AF3000FDC20012013BF4
:0902F600E4F58CF58AD28C80EF4E
:03000B00020003ED
:03000300050832BB
:03001B0002028D51
:10028D00C0E0C083C082C0D075D000758DEC758B79
:10029D00780511E511B4C807C28C751100D200752F
:1002AD00A0FF74132512F8E690030793F580E5126D
:1002BD009002FF93F5A00512E512B4080375120024
:0902CD00D0D0D082D083D0E03201
:10020D000202D6E493A3F8E493A34003F68001F22F
:10021D0008DFF48029E493A3F85407240CC8C333F2
:10022D00C4540F4420C8834004F456800146F6DFC1
:10023D00E4800B010204081020408090000EE47E43
:10024D00019360BCA3FF543F30E509541FFEE493B6
:10025D00A360010ECF54C025E060A840B8E493A37D
:10026D00FAE493A3F8E493A3C8C582C8CAC583CAA8
:10027D00F0A3C8C582C8CAC583CADFE9DEE780BE60
:0100180000E7
:10001E00E88FF0A4CC8BF0A42CFCE98EF0A42CFC81
:10002E008AF0EDA42CFCEA8EF0A4CDA8F08BF0A4FF
:10003E002DCC3825F0FDE98FF0A42CCD35F0FCEB5E
:10004E008EF0A4FEA9F0EB8FF0A4CFC5F02ECD3923
:0F005E00FEE43CFCEAA42DCE35F0FDE43CFC2290
:10006D0075F008758200EF2FFFEE33FECD33CDCC4A
:10007D0033CCC58233C5829BED9AEC99E5829840CD
:10008D000CF582EE9BFEED9AFDEC99FC0FD5F0D6AA
:10009D00E4CEFBE4CDFAE4CCF9A88222B800C1B9D4
:1000AD000059BA002DEC8BF084CFCECDFCE5F0CB12
:1000BD00F97818EF2FFFEE33FEED33FDEC33FCEB4B
:1000CD0033FB10D703994004EB99FB0FD8E5E4F906
:1000DD00FA227818EF2FFFEE33FEED33FDEC33FCF3
:1000ED00C933C910D7059BE99A4007EC9BFCE99AE7
:1000FD00F90FD8E0E4C9FAE4CCFB2275F010EF2F2C
:10010D00FFEE33FEED33FDCC33CCC833C810D7072B
:10011D009BEC9AE899400AED9BFDEC9AFCE899F866
:0E012D000FD5F0DAE4CDFBE4CCFAE4C8F922F9
:00000001FF
