:030000000200C833
:0C00C800787FE4F6D8FD75812102010F5D
:0A02C900C0F9A4B0999282F8809069
:02000600C1082F
:10024700E4FFE51025E0F51092A1D2A00000C2A0BE
:040257000FBF08EEDF
:01025B002280
:0902D300C2A200D2A200C2A222C4
:10025C00E4FFE51125E0F51192A4D2A30000C2A39E
:04026C000FBF08EECA
:01027000226B
:0902DC00C2A500D2A500C2A522B2
:10027100E4FFE51225E0F51292A7D2A60000C2A67E
:040281000FBF08EEB5
:010285002256
:0902E500C2B000D2B000C2B02288
:10028600E4FFE51325E0F51392B3D2B10000C2B145
:040296000FBF08EEA0
:01029A002241
:0902EE00C2B400D2B400C2B42273
:10029B00E4FFE51425E0F51492B6D2B50000C2B523
:0402AB000FBF08EE8B
:0102AF00222C
:0902F700C2B700D2B700C2B72261
:1001F600E4FF7590FF8590203000010F3001010F5C
:100206003002010F3003010F3004010F3005010FDA
:0D0216003006010F3007010F7E000201EBE2
:0C02BD00758901E4F58C758A0CD2A92229
:03000B000202B03E
:0D02B000C2A9758C00758A0CD2A9D2083243
:03000300020223D3
:10022300C0E0C0F0C083C082C0D075D008308C0459
:10023300C28C8005D28C1201F6D0D0D082D083D06C
:04024300F0D0E032E5
:10000E00E4FBFA1202BDD288D2A8D2AF3008FDC2EC
:10001E00081201A9EF25E0FBEE33FA7C277D10AF25
:10002E0003FE1201548F19EF9002C993F5101202BC
:10003E00471202D37C277D10AF03AE021201547E0D
:10004E00037FE8CFCDCFCECCCE1201548F1AEF93D3
:10005E00F51112025C1202DC7C037DE8AF03AE02E6
:10006E001201547E007F64CFCDCFCECCCE12015480
:10007E008F1BEF93F5121202711202E57C007D6464
:10008E00AF03AE021201547E007F0ACFCDCFCECC8D
:10009E00CE1201548F1CEF93F5131202861202EE4C
:1000AE007C007D0AAF03AE02120154AE05EE93F54D
:0A00BE001412029B1202F702001A4E
:1000D40002000EE493A3F8E493A34003F68001F234
:1000E40008DFF48029E493A3F85407240CC8C3332D
:1000F400C4540F4420C8834004F456800146F6DFFC
:10010400E4800B0102040810204080900006E47E85
:10011400019360BCA3FF543F30E509541FFEE493F0
:10012400A360010ECF54C025E060A840B8E493A3B7
:10013400FAE493A3F8E493A3C8C582C8CAC583CAE2
:10014400F0A3C8C582C8CAC583CADFE9DEE780BE9A
:0100080000F7
:10015400BC000BBE0029EF8DF084FFADF022E4CC8F
:10016400F875F008EF2FFFEE33FEEC33FCEE9DEC58
:10017400984005FCEE9DFE0FD5F0E9E4CEFD22ED9E
:10018400F8F5F0EE8420D21CFEADF075F008EF2FE8
:10019400FFED33FD4007985006D5F0F222C398FDD9
:0501A4000FD5F0EA2276
:1001A900AC15AD16AE17AF187810EC4D4E4F700464
:1001B9007CA57DA5C3EC13FCED13FDEE13FEEF1337
:1001C900FF5010EC64CCFCED644CFDEE644EFEEF88
:1001D90064CEFFD8DF8C158D168E178F18EE547FDD
:0D01E900FE228E158F1674A5F517F518224D
:00000001FF
